S0200000534F4C554D5F4155544F4445544543545F46554C4C5F7634332E73333725
S315000000000810002049010000B13E0000DF25000075
S31500000010B13E0000B13E0000B13E0000B13E00001E
S31500000020B13E0000B13E0000E4430000B13E0000D6
S31500000030B13E000094430000B13E0000B13E000016
S31500000040B13E0000B13E0000B13E0000B13E0000EE
S31500000050B13E0000B13E0000B13E0000B13E0000DE
S31500000060B13E0000B13E0000B13E0000B13E0000CE
S31500000070B13E0000B13E0000B13E0000B13E0000BE
S31500000080B13E0000B13E0000B13E0000B13E0000AE
S31500000090B13E0000B13E0000B13E0000B13E00009E
S315000000A0B13E0000B13E0000B13E0000B13E00008E
S315000000B0B13E0000B13E0000B13E0000B13E00007E
S315000000C0B13E0000B13E0000B13E0000B13E00006E
S315000000D0B13E0000B13E0000B13E0000B13E00005E
S315000000E0B13E0000B13E0000B13E0000B13E00004E
S315000000F0B13E0000B13E0000B13E0000B13E00003E
S31500000100B13E0000B13E0000B13E0000B13E00002D
S31500000110B13E0000B13E0000B13E0000B13E00001D
S31500000120B13E0000B13E0000B13E0000B13E00000D
S31500000130B13E0000B13E0000B13E0000B13E0000FD
S31500000140013800D0FCE7704708B50D4B83F30A88E9
S315000001500C4B09A1D1E90001C3E9000101F048FDFA
S3150000016000F0C8F901F036FD01F00EFD01F020FDAA
S3150000017000F060F9AFF30080A5EDF5FEA5EDF5FE04
S3150000018008000020081000200348044B834202D0D8
S31500000190034B03B1184770472010002020100020A1
S315000001A000000000064B0749C91A891048BF0131F3
S315000001B0491003D0044B0BB101481847704700BFE4
S315000001C020100020201000200000000010B5064C72
S315000001D0237843B9FFF7D8FF044B13B10448AFF3B4
S315000001E000800123237010BDB45D002000000000D4
S315000001F07046000008B5054B1BB105490548AFF32D
S315000002000080BDE80840FFF7CDBF00BF000000003A
S315000002102010002070460000F0B5421ED11C034697
S3150000022085B018D86E460D4C04F110073546206887
S315000002306168083403C5BC422E46F7D104A90F33C2
S3150000024011F8014D12F8010F844204D19A42F7D1F8
S31500000250012005B0F0BD0020FBE700BF8043000091
S31500000260F0B50368044603F16043B3F5004F4FF061
S3150000027000009FB029D8826A636816699E4224D816
S31500000280B3F5002F21D8656B06F14003AB425ED86B
S31500000290B5F5002F5BD82846FFF7BEFF002856D0DD
S315000002A0284602F05AF980B16B6973B1022B0ED160
S315000002B0AB69C4F1040119444FF0FF32204601F046
S315000002C0C3F8244BC31A584258411FB0F0BD40F240
S315000002D0046328460293FFF79FFF08B90020F4E75E
S315000002E000235F6B3846FFF797FF0028F6D0A6F18C
S315000002F050039F42F2D8284603A902F035F9002898
S31500000300ECD0039DAE42E9D8AC42E7D8B5F5002F54
S31500000310E4D804A801F02AF921462A1B04A803F010
S31500000320F4FA04A803F0F3FA01F034F9044601F0F4
S3150000033035F923460090294605F1200204A801F06C
S315000003409BF802900298B0FA80F04009BDE70120C0
S31500000350BBE700BFE320BBDE30B54FF0FF3289B00C
S3150000036005460C4601F070F80D4B984215D140F247
S31500000370022000F033F91C22002101A803F0CDFF72
S31500000380084B29466846009303F0B4FD6846211FD2
S3150000039003F0B0FD684601F05BFD002009B030BDFA
S315000003A0E320BBDE0100064310B5044688B040F2E8
S315000003B0022000F013F91C22002101A803F0ADFF72
S315000003C0054B21466846009303F094FD684601F00C
S315000003D03FFD002008B010BD0000034337B50C46B2
S315000003E00546E0B1D9B100230B60114B036003F061
S315000003F0FBFC013018BF2B6801A81CBF43F4404327
S315000004002B604FF0FF33019303F0F1FC019B43B9DE
S315000004102B6803432B60236843F48043236003B0B7
S3150000042030BD012B02BF236803432360F3E700BFFF
S315000004301424004013B501F073FE01280DD1294B99
S3150000044004205A6E4FF4802327494B6601F510416C
S31500000450086250035CBF254A53664FF04023D3F829
S315000004608420110606D44FF400621A67D3F884205C
S31500000470D206FBD402F0A5F800F0A2F808B900F005
S3150000048087F803F0C4FA044658B900F099F808B1A1
S3150000049000F08EF840F2012000F0CAF84FF4017027
S315000004A018E000F08DF808B900F07AF800F0A2F82C
S315000004B0012802D900F06CF8FEE700F0A7F80C4B13
S315000004C00193019B002B0ADC40F205439C42E5D1D7
S315000004D040F2032000F0ACF8002002B010BD019BF2
S315000004E0013BEDE7008000400090004000A0004086
S315000004F000350C00012307B58DF806308DF807305E
S315000005004FF04023D3F894305A060FD500F0A4F8E4
S31500000510A0F2022080B2072808D8C923C340DB070F
S3150000052042BF00238DF806308DF807304FF4C043E4
S315000005305B68013308D14FF4027000F04FF80023D6
S315000005408DF806308DF807309DF8073063B14FF40B
S31500000550C040FFF785FE8DF806009DF806301BB9F2
S315000005604FF4027000F03AF89DF8063053B100F0EF
S3150000057027F808B100F01CF84FF4C040034B986010
S3150000058002F023F803B05DF804FB00BF00ED00E0C5
S315000005904CF23C32014B5A80704700BF00000020ED
S315000005A04AF6C032014B5A80704700BF0000002057
S315000005B04FF20F02014B5A80704700BF0000002027
S315000005C04AF6C030044B5B8823F00F039BB21B1A1C
S315000005D058425841704700BF00000020044A08B541
S315000005E01080FFF7EDFF10B94FF20F03538008BDDF
S315000005F00000002008B5FFF7E3FF18B1024B58884A
S3150000060000F00F0008BD00BF0000002008B5FFF78E
S31500000610D7FF48B1054A538803F00F010F2914BFCD
S31500000620013323F00F03538008BD00BF00000020F4
S3150000063008B5FFF7D3FFBFF34F8F0549054BCA68CF
S3150000064002F4E0621343CB60BFF34F8F00BFFDE7B8
S3150000065000ED00E00400FA054FF20F01084B5A883E
S315000006608A4201D1188870473AB91B8840F20220A5
S31500000670012B18BF4FF4007070474FF4007070479D
S31500000680000000204FF4003208B5044B9A6601F0D2
S3150000069047FBB0FA80F0400908BD00BF009000405B
S315000006A0072BF8B506460F4614461D4601D900200D
S315000006B0F8BD0121202001F0A9FA0121212001F035
S315000006C0A5FA8CB144EA06039B07F0D14FF4003239
S315000006D0064B31469A66284623463A4601F04AFBBF
S315000006E0B0FA80F04009E3E70120E1E7009000401E
S315000006F010B5044600F0D8F8074BB0FBF3F304FB43
S3150000070003F0022806D9BDE810400323B0FBF3F03E
S31500000710FFF716BD10BD00BF40420F004FF08062CC
S31500000720024B5A664FF480725A667047009000403A
S3150000073010B5FFF7F3FF012100230422022001F088
S3150000074085FA002302221946104601F07FFA02219B
S3150000075000230846042201F079FA0123042203212A
S31500000760022001F073FA0122174C04F580535A60F7
S3150000077040F6AA6363610023144A2361E36404F527
S3150000078000539A6440F20143A36041F20503E3601B
S3150000079000F08AF80E4B0138B0FBF3F0102300028C
S315000007A0E0610C4A63610C4BC3F834260222C3F89D
S315000007B02C264FF00212C3F830261C22C3F81C2642
S315000007C00523636110BD00BF00C00540FFFF0100A7
S315000007D00050C3000200010000C0034008B50146F6
S315000007E0FFF79CFFBDE80840014803F092BB00BF3D
S315000007F000C0054038B505460D4CC0F307412046FC
S31500000800FFF78CFF03F08FFB2046C5F3072103F0AB
S315000008108AFBE9B2204603F086FB204603F073FB11
S31500000820204603F070FB2046BDE8384003F06BBB62
S3150000083000C0054008B5FFF771FFBDE80840FF217D
S31500000840014803F066BB00BF00C0054038B50B4D3C
S31500000850FF212846FFF762FF03F065FBFF212846CC
S3150000086003F061FB284603F04EFB0402284603F022
S315000008704AFBA4B2204380B238BD00BF00C0054089
S3150000088008B5FFF74BFF0822014B1A6708BD00BFEA
S3150000089000E0034008B5FFF741FF0822014B1A6745
S315000008A008BD00BF00D0034030B51C4B87B001AA7D
S315000008B003F11005144618685968083303C4AB429F
S315000008C02246F7D11B782370154B1B6F03F00703E5
S315000008D0032B1FD04FF48022124B5A66124A93689C
S315000008E0C3F30443102B17D818336B440F4913F87E
S315000008F0143C4B430E498B4203D19268C2F301620A
S31500000900D340074A106FC0F303300130B3FBF0F059
S3150000091007B030BD074BF4E7074BF2E72C44000065
S3150000092000800040009000400000014040420F005F
S3150000093000093D0000F04902C0EA21010A4B18688F
S3150000094030B9B1F5205F0DD8012208481A6070470A
S31500000950012806D1B1F5005F03D8022204481A60C7
S3150000096070470020704700BF38100020B4350020C3
S31500000970B415002031B1044A1368002BC4BF03F13B
S31500000980FF331360704700BF3810002002232DE9A3
S31500000990F04F8846164600278BB0DFF8C490DFF884
S315000009A0C4A005908DF81F309DF81F20022A07D09D
S315000009B0002E48D041F20231012A18BF0F4642E00C
S315000009C0D9F80010234DC1F540730893DAF80030CA
S315000009D0214809930DF11F0302930023019309ABEC
S315000009E0009308AA1D4B294402F00DFE9DF81F3006
S315000009F038BB63B3089BD9F8004029461C4424F051
S31500000A00030B43465A46059802F02FFF14F00304E1
S31500000A10074605D02246284605EB0B0103F063FC8A
S31500000A20DAF800200999C9F800408A42A2EB0104CD
S31500000A3004D90A482246014403F055FCCAF800408E
S31500000A40B2E741F2033738460BB0BDE8F08F41F20A
S31500000A500237F8E7B01000203C100020B413002045
S31500000A60AC100020B013002008B570220021064803
S31500000A7003F053FC01220020044B1A70044B18604B
S31500000A80044B186008BD00BF3C100020B55D002077
S31500000A90AC100020B01300202DE9F84399465B689E
S31500000AA080460F46144613B31B4B1D7875B10022C2
S31500000AB01A7051F8043B05220366184B184800F0DB
S31500000AC061F830BB164802F08BFC1125154E641BED
S31500000AD03368C3F50073A3420CD3D6F800801248DE
S31500000AE0224679194044444403F0E0FB3460002078
S31500000AF0BDE8F883002249464046FFF747FF002835
S31500000B00F6D13368C3F50073A342E6D241F204304E
S31500000B10EEE741F20530EBE7B55D0020101000204E
S31500000B203C100020B0130020B41300204B6870B5B1
S31500000B3005460C46E3B10122FFF728FFC8B90D4B65
S31500000B40186888B10C4E0428C0F104024FF0FF016A
S31500000B5088BF0022304403F0E0FB234604223146DE
S31500000B60284602F082FE20B90449054802F0C7FD76
S31500000B70002070BDAC100020B01000201010002026
S31500000B803C1000202DE9FF41E846044640461E463B
S31500000B9002F0C1FD054660BB32464146204602F0E2
S31500000BA08DFD054628BB039AB2F1804F25D240F64B
S31500000BB0FF731649B2F5800F28BF0B469F1827EA28
S31500000BC003076169974238BF174611B1A36ABB4252
S31500000BD015D030467368984700233946636130461E
S31500000BE033689847606150B93146204602F05DFD92
S31500000BF00225284604B0BDE8F081054BDEE798E8FB
S31500000C000F00A76284E80F00F3E700BFFFFF0F00A5
S31500000C10FFFF3F000068024BC31A58425841704715
S31500000C20FD0707FD034A044B90420CBF18460020FF
S31500000C30704700BFFD0707FD4044000030B502467F
S31500000C4000230C25054905FB03F460180C59944252
S31500000C5003D001330B2BF6D1002030BD54440000E5
S31500000C60F0B50023082785B0CDE9007315463B464D
S31500000C700DEB0702044602F091FD41F20303984290
S31500000C80064613D1039A029B6A600A4A2B60934276
S31500000C9008D0094A934205D03A46E06C0DEB0701AD
S31500000CA002F033FE6B68236500236365304605B0AA
S31500000CB0F0BD00BFF70A0AF7FC0404FC2DE9F04179
S31500000CC000254FF0FF3704468846164603F02003FA
S31500000CD080F842301822FF21C0E91855A0F840508C
S31500000CE080F84350A0F8445080F84650C0F8887009
S31500000CF0683003F012FB88222946C4E91286C4F83C
S31500000D008070C4F8847004F1900003F006FB074B72
S31500000D10C4F82071C4E9463584F8245116B130462A
S31500000D2000F024FC0020BDE8F08100BF00010101B5
S31500000D302DE9F04FA3B09846CDE90F2300230446D2
S31500000D400E464FF001092C9D1193119967E094F816
S31500000D5046300C2B5FD8062B33D909FA03F212F46E
S31500000D60286F40F0F78112F4885F40F091810A2BDA
S31500000D7055D1DFF88CA3636D072B49D84FF0080BCC
S31500000D80382314AA2046CDF80490CDF800B00FA958
S31500000D9002F004FD41F203030790079A9A4200F01D
S31500000DA01B81079B4BE0A3F10E02062A00F2D482B8
S31500000DB0DFE812F04403D800D800780278020F0268
S31500000DC04203013B052B2ED8DFE813F071001C000F
S31500000DD00600C401D4006A010127636D072B17D8EA
S31500000DE0082312AA00932046402301970FA902F078
S31500000DF0D5FC41F203030890089A9A4200F0168146
S31500000E00089B1CE00127636D072B2DD984F84670DB
S31500000E1041F2030313E0A3F10D02072AC3D94145AA
S31500000E2095D30020A3E012AA20460FA9FFF718FFCA
S31500000E3041F203020390039B934208D0039B029363
S31500000E4041F20303029A9A423FF47FAF49E0139AB4
S31500000E501299226500226265A74A914240F0F1800C
S31500000E60022284F84620EAE7082312AA00932046C5
S31500000E70402301970FA902F091FC41F2030304906D
S31500000E80049A9A4201D0049BD9E7129B03F07F4350
S31500000E90B3F1407F05D0142384F8463041F20903AC
S31500000EA0CDE7139BD807AED541F20A03C7E7204624
S31500000EB012AA0FA9FFF7D4FE41F203030590DDF84D
S31500000EC014A09A450FD0DDF814A041F20303CDF823
S31500000ED008A0029A9A423FF438AF029B0BB1002356
S31500000EE0F370029843E01298FFF7A8FE074628B968
S31500000EF0142341F2080A84F84630E6E7437994F869
S31500000F0024219A4205D9142341F20E0A84F8463068
S31500000F10DBE70168794A914205D00289D10748BFCB
S31500000F20013384F8243112A8FFF774FE18B93B790F
S31500000F3084F84630C9E71298C4F88C00FFF772FEB1
S31500000F4094F842309A06F2D50028F0D04368002B78
S31500000F50EDD0204698470590059B002BE7D041F23F
S31500000F60010AB2E7142341F2010084F8463023B0A7
S31500000F70BDE8F08F00213C2213A81291012703F04F
S31500000F80CCF9D4E9143293427FF640AFCDE900376D
S31500000F9012AA402320460FA902F000FC41F20303E7
S31500000FA00690069A9A4201D0069B48E70DF1480C36
S31500000FB006F108030DF1600E624603CA7245186019
S31500000FC05960944603F10803F6D110681860337827
S31500000FD043F001033370D4E7337843F004033370EE
S31500000FE0159BB36273785B071CD50020236DCDF883
S31500000FF048A0C4F8843094F84530606643F0020394
S3150000100084F84530EF686FB104222B6812A9B847FF
S31500001010606E2B685A46EF6814A90830B847636EAD
S31500001020103363660B2384F84630A4E63378139AAC
S3150000103043F002033370129B7360236D083B7362A7
S315000010402AB1142384F8463041F20103F7E604235B
S3150000105084F8463094F84530626643F0010384F81C
S315000010604530BAE6042312AA00932046402301978E
S315000010700FA902F093FB41F203030990099A9A42E1
S3150000108001D0099BDBE6226D129B042A01D9236657
S315000010900127636D032BE5D9092384F84630B7E6AB
S315000010A000236366072384F846304EE6FF1ADDE91F
S315000010B010329B1A94F84020032F134407D9032BB0
S315000010C020D820460FA902F048FB0023B7E69F422E
S315000010D0F7D89F4228BF1F46402312AA2046CDE9D3
S315000010E000790FA902F05AFB41F203030A900A9A0B
S315000010F09A4210D00A9BA2E6EB17A603F90707F956
S31500001100EB17A65E402F28BF40279F4228BF1F46E9
S3150000111027F00307E0E794F846B0BBF1070F1FD0AE
S31500001120042FC7F1040A88BF4FF0000A12AB5246DB
S31500001130FF21D81903F0F1F8BBF1090FBA441DD10C
S315000011402B465246204612A902F08FFB0A900A9BB4
S31500001150002BCFD1D4E914739F42A7D801239CE773
S31500001160D5F808A0BAF1000FDAD02B683A46606EBF
S3150000117012A9D047636E3B446366EBE7BBF1040FED
S315000011801DD173789F07E5D5EB68002BE2D0626E20
S31500001190042A0BD80AEB0203062B07D913AB9B1ABA
S315000011A01A68C4F884204FF0FF321A60EF682B6883
S315000011B05246606E12A9B847636E5344DCE7BBF132
S315000011C00B0FC7D173785807C4D5EF68002FEED13F
S315000011D0C0E794F8427017F0200707D0D4F88C00C7
S315000011E0FFF720FD074600283FF42EAFD4E914216F
S315000011F094F84230914203F020030ED3002BADD079
S31500001200002FABD0FB68002BA8D029462046984774
S315000012100B900B9B002BA1D029E053B34FB33B6936
S315000012203BB320469847DDE910329B1A94F84020DC
S3150000123013448342FFF445AFD4E91421A2EB010A1B
S31500001240BAF1400F28BF4FF0400A9A4528BF9A4688
S31500001250012312AACDE900A3204640230FA902F0DC
S315000012609DFA41F203030B900B9A9A4203D00B9B13
S31500001270E5E50120D7E794F842309906B6D5002F68
S315000012803FF4E2AED7F808B0BBF1000F3FF4DCAE96
S315000012902B465246204612A9D8470B900B9B002B93
S315000012A0A4D0E4E700218A6A496B1269503A914258
S315000012B03FF6CAAE112B0FD194F81831002B7FF4EC
S315000012C04DAF41F206030C930C9A9A4202D11423B5
S315000012D084F846300C9BB2E594F84430002B7FF43A
S315000012E03DAF0193402312AA009320460FA902F0B6
S315000012F055FA41F203030C900C9A9A42EAD1E06C3B
S3150000130002F005FB94F81831A3B104F1B40300937D
S31500001310E06C04F194031AAA12A900F0ADF80C903F
S315000013200C9BA3B10023F370142384F8463041F2DA
S31500001330060384E5D4F84CA000F02CF9074600F02B
S315000013402DF93B4600901AAA504612A9E5E701235B
S31500001350F37084F8443001E700234FF0040812AA22
S31500001360CDE90083204640230FA902F017FA41F287
S3150000137003030D900D9A9A4202D00D9B0293B0E59D
S31500001380D4F888202F4B9A4205D0142384F846308F
S3150000139041F20503F2E70123F37094F84530DA07CA
S315000013A007D5EF682FB1424640462B6804F1840109
S315000013B0B84794F845309B0707D5EF682FB104224C
S315000013C02B68104604F18401B847236E6BB36F682F
S315000013D05FB34FF0FF3304F18008042241460EA8A4
S315000013E00E9302F070FF28B10422414648F2040031
S315000013F02B68B84704F16809042249460EA802F092
S3150000140062FF90B100239B6A1422D3F8108004F186
S315000014106C0108F10800D5E90037B847D5E900376F
S315000014200422494608EB0200B8470123B3700E2395
S3150000143084F846300023A1E70023F37041F2070049
S3150000144095E500BFE320BBDE30B50824094B002537
S315000014505C66012403F5FE235C6001449D601A610D
S31500001460DC60884201D1586A30BD10F8012B1A623F
S31500001470F7E700BF009000402DE9F041B0B01446F8
S315000014800D461A460646369B002867D0002965D0C9
S31500001490002C63D0002A61D0002B5FD006214FF4C8
S315000014A0005006912F4920AF88660320C1F86002DC
S315000014B00021BE4609910C910F9105F12008F446D2
S315000014C0286869680835ACE803004545E646F6D164
S315000014D00DF1A00C04F1200E654620686168083401
S315000014E003C57445AC46F7D10DF1400C654602F1D3
S315000014F0200E2C4610685168083203C472452546F2
S31500001500F7D118AC03F1200522461868596808334C
S3150000151003C2AB421446F7D14023CDE90A730893C0
S3150000152020230AAA0E9303AB07CACDF81CC00D965A
S3150000153083E8070007AB93E807008DE807000DABCB
S315000015400ECB094802F0ECFD0690069B40F20460C3
S31500001550002B08BF002030B0BDE8F08140F20160EA
S31500001560F9E700BF009000408C4500004FF40052A0
S31500001570074B10B59A6602220446C3F8602202F0B1
S31500001580C9F92046BDE81040002102F0C7B900BFE6
S3150000159000900040004870474CE307000048704741
S315000015A06CE307002DE9F3471446DDE90A920D4680
S315000015B01F4600284DD14CB313683F2B2AD85168DB
S315000015C051B32549002F14BFB846884603F03F069D
S315000015D01B19136022BF536801335360FEB93F2CB9
S315000015E00ED9A3092A46009341463B46002002F045
S315000015F0AEF924F03F031D4404F03F0434B1002645
S315000016002246294609EB060002F050FE002002B0F1
S31500001610BDE8F087B846D9E7DFF83C80D6E7C6F1E3
S31500001620400A5445ECD32946524609EB060002F01F
S315000016303DFE0123264400934A463B464146002090
S31500001640A6F1400402F083F93F2C5544D6D9B8469A
S31500001650C7E70248DBE700BF1845000080AFFFFF81
S315000016602DE9F0411746146886B01E46E3008DF852
S315000016700F3063098DF80E30630B8DF80D30630D56
S315000016808DF80C3053680546DA0002EB54728DF87B
S315000016900B2004F03F045A09372C8DF80A204FEA34
S315000016A053324FEA53538DF80920884694BFC4F14C
S315000016B03802C4F17802CDE900178DF808300D49DB
S315000016C003460020FFF76EFF08222B460020CDE9D7
S315000016D000870DEB0201FFF765FF284605F12003A1
S315000016E050F8042B984246F8042BF9D1002006B096
S315000016F0BDE8F081D844000010B5ADF50E7D4FF47D
S315000017000572002009A902F0CDF940F2012400215A
S3150000171009A802F09EF9A042F9D040F203239842AC
S3150000172027D19DF8243059070CD49DF824309A0708
S3150000173030D4DB071DD50C998A9800F057F9C0B153
S31500001740002018E0139800F029FF0028EDD000F0E3
S315000017507BFC194B0446984210D11C22002102A89A
S3150000176002F0DBFD01A8019400F08CFCB0F5403FCF
S3150000177004D140F205400DF50E7D10BD8A9800F0AB
S31500001780F3F80028D1D04FF40040FEF70DFE0028F4
S31500001790CBD1EEE70022926A0A9992689142C8D9A3
S315000017A08A9800F0FFF80028E3D012994FF4004021
S315000017B0FEF7D2FDDDE700BF0000034331B10A4B5F
S315000017C05A68824205D80023C1E9003340F201403D
S315000017D07047013053F8302003EBC0035B680020EC
S315000017E00A604B60704700BF7C45000070B40C4631
S315000017F011461A460D4B5D68854210D9013003EB40
S31500001800C0056D68A618AE420DD8A5420BD3954209
S3150000181009D353F83000204470BC02F06EBA40F28F
S31500001820014070BC704740F20240FAE77C45000078
S3150000183070B50D46002186B00DF1070302931E4BCD
S3150000184004461646116028461C22CDE903338DF85E
S315000018500710059302F061FD9DF8072052B994F830
S315000018607230132B06D0D4F810321BB9D4E982316A
S31500001870994219D32378990744BF61683160DB0721
S3150000188009D504F1080304F1240153F8040B8B4233
S3150000189045F8040BF9D162B9237840F20640002BD3
S315000018A018BF002006B070BD204602A902F0B4F8A9
S315000018B0D2E70020F6E700BF133A000070B40C46EA
S315000018C011461A460D4B5D68854210D9013003EB6F
S315000018D0C0056D68A618AE420DD8A5420BD3954239
S315000018E009D353F83000204470BC02F027BA40F206
S315000018F0014070BC704740F20240FAE77C450000A8
S31500001900074B5A68824207D9013003EBC00251687F
S3150000191053F8300002F06DBA40F20140704700BF44
S315000019207C45000070B5054688B0C0B14FF4403222
S3150000193000236C46C0E900230A4B05F114061A7809
S315000019405B680272C360684600F0A4F80FCC0FC64D
S3150000195094E80F0086E80F0005F114032B6108B028
S3150000196070BD00BF7C45000000B5ADF50B7D4FF4A2
S31500001970057205A902F096F878B904238DF815309A
S31500001980074BCDE90100039001A905A8049302F0D5
S315000019909DF80DF50B7D5DF804FB0020F9E700BF0F
S315000019A011250000002300B59B6AADF50B7D9B68F1
S315000019B08B4204D300200DF50B7D5DF804FB4FF43C
S315000019C0057205A902F06EF80028F3D102238DF8FE
S315000019D01530054BCDE90100039001A905A8049334
S315000019E002F074F8E7E700BF1125000000B5ADF579
S315000019F00B7D4FF4057205A902F054F878B901235E
S31500001A008DF81530074B0190CDE90230049001A9FD
S31500001A1005A802F05BF80DF50B7D5DF804FB0020D0
S31500001A20F9E700BFF124000010B5FEF781FE01F0D2
S31500001A30ECFF42F21070FEF75BFEFEF721FFAB20D3
S31500001A40FEF7CCFEFEF726FF47F23050FEF750FEBB
S31500001A50FEF716FF002002F05EF8FEF7F7FE04041C
S31500001A60FEF7F4FE0443FEF715FF094B9C420CD12A
S31500001A70FEF706FF9F20FEF7B1FEFEF7DBFEFEF740
S31500001A80E5FEFEF707FF002010BD40F20310FBE75E
S31500001A90504446532DE9F041054602F05DF80446F0
S31500001AA0FEF7EEFE04F1240002F035F8FEF7C2FE62
S31500001AB00446FEF7BFFE0443E4B2FEF7EBFEFF2C3E
S31500001AC01FBF04F00F0601362411760014BF04FB75
S31500001AD0066640F6B83602F03FF80446FEF7D0FE3A
S31500001AE004F1280002F017F8FEF7A4FE00F00F0438
S31500001AF0FEF7ACFEFEF79EFE0746FEF7CBFEFF2F77
S31500001B0008D10F2C3AD01F22631C5B0002FB033363
S31500001B101C020BE0631C5B0007F01F0217F0600F4E
S31500001B2002FB0334C7F347111ED1240102F02CF83F
S31500001B30074602F03BF810B902F049F8074602F0F2
S31500001B4090F8804602F071F80E4B2876C5E900360B
S31500001B5000236B614FF000432846C5E90247C5F8EC
S31500001B601080EB61BDE8F081C807CFD48B074CBF6E
S31500001B704FF47A634FF47A435C43D7E747F2305425
S31500001B80D4E700BF10020300064B0748DA1C121AFE
S31500001B90C11E22F00302994288BF0022034902F0C7
S31500001BA085BB00BF20100020101000207C460000DE
S31500001BB0064B0748DA1C121AC11E22F0030299428C
S31500001BC088BF0022002102F0A8BB00BFB85D00203C
S31500001BD0201000200348044A0449121A921002F009
S31500001BE068B900BF8C4600008C460000B85D002036
S31500001BF0044B054A9A60D3F8882042F47002C3F871
S31500001C008820704700ED00E000000000420910B592
S31500001C100FD0012A0FD00A4B0A4C022A18BF2346BE
S31500001C2000F01F0049B103F58053012282401A607B
S31500001C3010BD1346F4E7044BF2E703F50053F4E74F
S31500001C40688000406082004064800040F8B5044629
S31500001C500D461F4616464AB101238B403021184ACD
S31500001C6001FB0022F7B141F21001535004EB44038B
S31500001C70072D4FF00F014FEA031316D8A80006FAF6
S31500001C8000F281400F48184402F025F94EB90123AD
S31500001C9030210B4AAB4001FB042277B141F210011F
S31500001CA05350F8BD42F21001DFE7A5F108008000AD
S31500001CB006FA00F281400448E5E742F21001EFE738
S31500001CC000C0034004C003400CC00340F0B5114AF5
S31500001CD0114C124E00F00105E3695F0713D40DB9EC
S31500001CE0334213D103EA00078F4207D10B4A1A4049
S31500001CF0002A0CBF00206FF00100F0BD013AEBD1C5
S31500001D006FF00200F9E74FF0FF30F6E76FF00100E1
S31500001D10F3E700BF80969800000003400200010030
S31500001D204FF4003238B50F4B0F4C9A6641F67133BB
S31500001D300122E569E3630D4B0021DA60022360614D
S31500001D402120236105F48035FFF7C0FF10B921205B
S31500001D50FFF7BCFF0122064BDA600DB10023E363F7
S31500001D6038BD00BF00900040000003400010034053
S31500001D70002003402DE9F04F01274FF4402530267F
S31500001D802C4CDFF8BCC0DFF8BCE0CCF8047044F89B
S31500001D90205000244FF4003506FB00E6F465346657
S31500001DA03467254CDFF8A090A56641F6713504F539
S31500001DB01C34D4F81C80E563E568DFF890A03D4349
S31500001DC0E56007FA00F04BB9E26818F4803F22F0AC
S31500001DD00102E26029D10020BDE8F08F01F500552F
S31500001DE005EA09056D1A9D4228BF1D466161D4F8B2
S31500001DF01CB0AF081BF0040F19D1013F3F0147F09B
S31500001E0060577766B266C6F86CA0CCF82400DEF898
S31500001E1034703842FBD0094F294478630427CCF844
S31500001E2028002A4427615B1BCDE7E363D3E74FF025
S31500001E30FF30D1E7004004400090004000200440FD
S31500001E40001004400000044000E0FFFF18000340BB
S31500001E50F8B5C3690446042B66D802F035F84FF48A
S31500001E608032324B3249586E03F580535A66314DF3
S31500001E70314BC003C1F80036C1F804565CBFA1F56A
S31500001E80E4214A662D4AE5691A6022685A602C4A9E
S31500001E9004F1080303EB8501121B8B4202EB0300DE
S31500001EA01FD1284600216368264CF3B9224A41EA2D
S31500001EB0056191601368516892684B405340002257
S31500001EC082422CD144F82230BFF34F8F1E491F4B5C
S31500001ED0CA6802F4E0621343CB60BFF34F8F00BFC2
S31500001EE0FDE753F8046F0660D7E70022D3F800E059
S31500001EF004EB80079E68BC46C6F39906B24207F11A
S31500001F00040706D3114410445A68012ACED05B68F0
S31500001F10CBE75EF822600132CCF80060EAE754F8BD
S31500001F20221001324B40CBE7F8BD00BF00800040D5
S31500001F3000C00740004E00A0004C00A0DEC0ECE54B
S31500001F40044C00A00C4C00A000ED00E00400FA05D3
S31500001F504FF48031174B10B5586E03F58053596610
S31500001F6003F5E623D3F8043603F1C042A2F5804216
S31500001F70B2F5606F01D9002010BDC2035CBF0E4AE6
S31500001F80516619680D4A9142F5D11A690532B2F5C2
S31500001F90007FF0D200210C46914205D353F822006F
S31500001FA0031B58425841E7E753F8210001314440EA
S31500001FB0F2E700BF0080004000A00040DEC0ECE574
S31500001FC038B50F4B0F495A6E4FF48033D20358BFC2
S31500001FD00D4A4B6601F5E621D1F80456044658BF72
S31500001FE0536630B1FFF7B4FF30B100206B68236051
S31500001FF038BD4FF4E020FBE74FF47E00F8E700BF62
S31500002000008000400090004000A000400B4B0C49AF
S315000020105A6E4FF48033D20358BF0A4A10B54B6646
S3150000202001F5E621D1F8044658BF5366FFF790FF45
S3150000203010B1A068C0F3C05010BD00BF00800040C2
S315000020400090004000A000400B4B0C495A6E4FF424
S315000020508033D20358BF0A4A10B54B6601F5E62114
S31500002060D1F8044658BF5366FFF7D0FF08B1E068C1
S3150000207010BD4FF47E00FBE700800040009000405A
S3150000208000A00040F8B5234B23495A6E4FF4803325
S31500002090D2034B6658BF214A01F5E621D1F8045612
S315000020A058BF5366846805F11406FFF7AFFF48B3BF
S315000020B02A6956F82230DB4346F82230A86810F425
S315000020C070201DD0A86800F47020F8BD0021D4F857
S315000020D000C0A668C6F39906B1420DD0934203D15B
S315000020E09CB19342F2D3F0E7013305EB83073F69D6
S315000020F04CF821700131EFE7646824F00104EFE742
S315000021000346EDE74FF47E00DFE7934238BF4FF416
S31500002110E020DAE7008000400090004000A0004088
S31500002120024B1868C0F30740704700BF0080E00FFD
S3150000213060B5054619B10139B1F5806F0FD2094E68
S31500002140F06810F48030FBD143EA012312072B43D9
S3150000215002F08052134343F00043736060BD0120D8
S31500002160FCE700BF0020024C0122054B9A60DA68AA
S31500002170D203FCD4D86820F00F000004000C70478E
S315000021800020024C0322024B186019615A63704703
S315000021900000024C82B01FB507930A9B04AC8B4229
S315000021A028BF0B4604E907001048D100079948BF2D
S315000021B003330160099948BF23F0030323F07043FA
S315000021C001F0E041194341F000518160002102F025
S315000021D0E042019C1A4342F00052C16004618261F0
S315000021E0416304B0BDE8104002B070470000024CE5
S315000021F03F22034B1A631022DA6103229A63704767
S315000022000000024C024AD36B9B07FCD4704700BF08
S315000022100000024C044B9B6A13F0240F14BF0120EC
S3150000222000208000704700BF0000024C08B5FFF791
S31500002230F1FF064BDB6B23F47F4323F0EF030343ED
S315000022401EBF0122024BC3F8FC2F08BD0000024C42
S3150000225000F0FF3F0138C0B206289ABF014B185C58
S3150000226000207047674600000138C0B206289ABFB2
S31500002270014B185C00207047604600002DE9F04FC6
S31500002280BBB0804603A880E80E001E467A4B174670
S31500002290D3F800248A46D4069DF8109103D4012071
S315000022A03BB0BDE8F08F08F1FF32062A6DD8DFE8B3
S315000022B002F004191F252B313700D3F80C34D80748
S315000022C0EDD5012307930023B9F1010FCDE90833BA
S315000022D02CD0B9F1020F5AD04046FFF7C5FF632450
S315000022E0054631E0D3F80C349907D8D50223E9E73F
S315000022F0D3F80C345A07D2D50423E3E7D3F80C34C9
S315000023001B07CCD50823DDE7D3F80C34DD06C6D58C
S315000023101023D7E7D3F80C349C06C0D52023D1E789
S31500002320D3F80C345806BAD54023CBE7524BD3F832
S315000023300C34D903B3D5079B404643F4C0630793D7
S31500002340FFF788FF0324054613230422009307A9F9
S315000023504FF0005312A801F0AFFE5146009446F02C
S3150000236000533A4601F0A8FE4FF0000B04465E46C5
S31500002370DDF814A1469B9B452CD1B9F1030F42D140
S315000023804046FFF771FFB84237D0072088E73A4B3F
S31500002390D3F80C24D20382D5D3F80C349B037FF5F3
S315000023A07EAF97B17C423946374604F00304079B5B
S315000023B0404643F4E0630793FFF74CFF24023E4692
S315000023C005460F4644F0A304BEE704210DF1200A9A
S315000023D00C46ECE7DAF8042016444AB103230093CE
S315000023E02046DAF80830DAF8001001F065FE0446F7
S315000023F00BF1010B0AF10C0ABCE7404601F0DAFECC
S3150000240001383042C1D17EBB0323324620460093B9
S3150000241008A9334601F050FE04260446103C204627
S3150000242001F05FFE2046314601F066FE489BAB4256
S3150000243028BF2B461C46EBB1002322460093479942
S31500002440499B0AA801F038FE2A1B04D0002319462E
S31500002450009301F031FE103801F043FE12A80AA9DC
S3150000246001F01FFE00201BE716F0030618BFC6F199
S315000024700406D3E70AA8E7E70000024C4FF400522F
S31500002480034B00209A660322C3F86022704700BF00
S31500002490009000404FF40052034B00209A6603223E
S315000024A0C3F86022704700BF00A00040C0F30C03D1
S315000024B02DE9F04105460F4616460BB9FEF7E2F840
S315000024C005F5005424F4FF5424F01F0405EB060818
S315000024D0A04507D8324639462846BDE8F0410223D2
S315000024E0FEF7DEB82046FEF7CDF804F50054EFE718
S315000024F070B40025AD6A03462E69864206D86C691B
S3150000250013449C4202D370BCFFF7D0BF70BC704727
S3150000251037B500F5004310F5004F0D4614460193FC
S3150000252019D2019BB3F5FC2F15D2019BC3F5FC23F1
S31500002530934210D338B9836A5A69B2F5004F02D96B
S315000025401869FEF79FF822462946019803B0BDE8B0
S315000025503040FFF7ABBF03B030BD036913F0FE0F89
S315000025600CBF01200020704738B504460D46FDF724
S3150000257053FE38B16369012B07D12046FFF7EDFF03
S3150000258010B1A46901202C6038BD0020FCE708B515
S31500002590FFF716FDB0FA80F0400908BD4FF0FF3393
S315000025A013B5044601A80193FFF7F1FF20B1019B83
S315000025B0A3422CBF0020012002B010BD4FF4004002
S315000025C07047FFF731BA01F065BC0346184601684B
S315000025D081F3088881F3098840688746FEE74FF44F
S315000025E00170FEF725B8B1F5057F10B504460FD387
S315000025F04FF40572002101F090FE04F5CE7204F549
S31500002600AA7104F12C000023BDE81040FEF756BB6A
S3150000261040F2052010BD13B50446009101462C304A
S31500002620FEF786FBC4F8100218B141F20703984280
S3150000263004D1A37823B1E07800F2022002B010BDE5
S3150000264040F20120FAE72DE9F04387B00DF10809C1
S3150000265004460E4617460021102248461D46DDF860
S31500002660388001F05AFE00211C22C8F800102846C6
S3150000267001F053FE32463B462146CDF8009004F168
S315000026802C00FEF755FB23789A0744BF6268C8F80A
S315000026900020DB0709D504F1080304F1240253F8EE
S315000026A0041B934245F8041BF9D1237840F20640F7
S315000026B0002B18BF002007B0BDE8F0834FF405706B
S315000026C07047002303604FF400107047436D002BE2
S315000026D014BF012011207047826CF0B5531EB3F56C
S315000026E0887F18D8D0E9093CD0E90B47C91A91422E
S315000026F028BF11464569866B2FB9C768A7EB040E3C
S315000027008E4598BF07630C44521AC462826419440A
S315000027108B4201D14362F0BDB34234BF644600240C
S315000027209A1B2A44125DEA540133F1E72DE9F04F72
S3150000273095B008910D92036B416A0793C36A0193A2
S31500002740079B002B40F0AA80019AC3689B1A089A3F
S31500002750521A9A4240F2A2800B444FF0FF37D0E95A
S315000027600DBA8568099307FA05F5ED430E95456898
S31500002770C36BAF40FD430F9500250293036C0469BC
S315000027800393436C0B950493036804F668250C9336
S31500002790119504F26465436912950C9D0593C5F184
S315000027A00805836A026A13950693D0E906360E9DDC
S315000027B0019FB6F1807F05EA070808EB0B1C3CBFBA
S315000027C013F8015B360234F81C7038BF45EA022262
S315000027D0F50A7D4395424FEA0B1E40F2C380C7F5CA
S315000027E0006607EB561624F81C60019F079E04F648
S315000027F06C6C3E4312D03E460F9F37400C9E07FA44
S3150000280006FE00294CD1069E013E059FBE5D139F24
S315000028103E414FF4C067764407FB06CC019EBBF1F0
S31500002820060F06F10106019647D80126BBF1030FF4
S3150000283094BFABEB0B0BABF1030B0096009EB5F10F
S31500002840807F38BF13F801EB4FEA460638BF2D02EA
S315000028503CF8067038BF4EEA02224FEAD52E07FB37
S315000028600EFE964500960CEB06081BD9C7F50065CB
S3150000287007EB5515AFB27546009EA8F80070FF2EFF
S31500002880DCD9059E009F77542E460131099D8D4265
S3150000289040F236830D9D9D4289D831E3089B5CE763
S315000028A04E1EB2E7009EA7EB57170136A5EB0E05A5
S315000028B0A2EB0E02BFB20096DEE7069FA1EB0A0668
S315000028C0514528BF0027BE46059FBBF10A0F3E446F
S315000028D016F80E9034BF03260626ABEB060B012630
S315000028E04FF4807800964FEA4909009E09EA0807E6
S315000028F00A9708EB06070A9EB5F1807F38BF13F8E2
S3150000290001EB37440CEB470638BF2D023CF8177035
S3150000291038BF4EEA02224FEAD52E07FB0EFE10966E
S31500002920009E96454FEA460600960ED9C7F5006505
S3150000293007EB5515AFB20A9D28EA05087546109EA5
S315000029403780009EFF2ECED99BE7009EA7EB571738
S315000029500136DDF82880A5EB0E05A2EB0E02BFB20C
S315000029600096ECE7761BA7EB5717B6F1807F24F8A5
S315000029701C70A2EB05020BF1C0093CBF13F8015B0A
S31500002980360234F8197038BF45EA0222F50A7D434B
S3150000299095424FEA490C40F20581C7F5006607EB00
S315000029A0561624F81960049E129F0A96039E0BF190
S315000029B00C0B0496029ECDE902A6B5F1807F3CBFC2
S315000029C013F8016B2D02B7F800C038BF46EA0222A1
S315000029D0EE0A0CFB06F6964240F2A3814FF0000E7B
S315000029E0CCF500650CEB55153D8007EB0817043751
S315000029F04FF008094FF0010CB6F1807F38BF13F88D
S31500002A00018B4FEA4C0C38BF360237F80C5038BFF2
S31500002A1048EA02224FEAD62805FB08F8904507EB5C
S31500002A200C0A40F2AE81C5F5006605EB5616B5B246
S31500002A304646CC45AAF80050DED3AEEB090E0EEBA7
S31500002A400C05BBF10B0F009540F2B382032D94BF2A
S31500002A504FEAC51E4FF49C6E4FF0010598BF0EF568
S31500002A60587EB6F1807F4FEA450538BF13F801CB93
S31500002A7005EB0E0838BF360234F8087038BF4CEA4A
S31500002A8002224FEAD62C07FB0CFC944540F28381C8
S31500002A90C7F5006607EB5616B7B266463F2D24F813
S31500002AA00870DED9403D032D3FD905F0010C0D2DF0
S31500002AB04FEA55074CF0020C00F283814FF00108F3
S31500002AC0013FC5F1004E0CFA07FC0EF2AF2EE644AC
S31500002AD04FEA4E050B95C24665460A970B9FB6F11F
S31500002AE0807F4FEA480838BF13F8019B07EB080EB2
S31500002AF038BF360234F80EC038BF49EA02224FEA20
S31500002B00D6290CFB09F9914540F24E81CCF50066B9
S31500002B100CEB56161FFA86FC4E460A9F24F80EC08A
S31500002B20013F4FEA4A0A0A97D8D1079F05F1010AE1
S31500002B30002F40F03C82019FAF4240F25782BBF12A
S31500002B40130F34BF4FF0070B4FF00A0B009F099D80
S31500002B500237B5EB010CB84600F04882BC4528BFE9
S31500002B60BC46069FA1EB0A05514528BF00273D44F8
S31500002B70019F67440197A8EB0C070B97069F7F1BE5
S31500002B80BC45059F0F4400F21C82A5EB0108059D7C
S31500002B90614405EB010C17F808E007F801EBBC45AA
S31500002BA0F9D173E6A7EB5717761B521B24F8197059
S31500002BB0079D019F3D4303D1012015B0BDE8F08F6D
S31500002BC0B6F1807F38BF13F8015B0CF1180938BFE6
S31500002BD0360234F8097038BF45EA0222F50A7D4309
S31500002BE0954250D9C7F5006607EB5616B5F1807FBA
S31500002BF024F809600EF1F00E38BF13F8016BC644D5
S31500002C0038BF2D0234F81E7038BF46EA0222EE0A9B
S31500002C107E4396421FD9C7F5006507EB5515069FFB
S31500002C2024F81E50514528BF0027BC46059FA1EB3E
S31500002C300A053D4415F80C50BBF1060F7D54019D65
S31500002C4088BF4FF00B0B05F1010598BF4FF0090B3C
S31500002C50013101951AE6AD1B921B029ECDF808A024
S31500002C60B246A7EB571724F81E70049EBBF1060F59
S31500002C700A96039E8CBF4FF00B0B4FF0080BCDE965
S31500002C8003A6119F99E6761BA7EB5717B6F1807F2F
S31500002C9024F80970A2EB05020CF1300E3CBF13F8C4
S31500002CA0015B360234F80E7038BF45EA0222F50A97
S31500002CB07D43954206D9C7F5006607EB561624F8FC
S31500002CC00E60D2E7761BA7EB5717B6F1807F24F884
S31500002CD00E70A2EB05020CF1480C3CBF13F8015B29
S31500002CE0360234F80C7038BF45EA0222F50A7D43F5
S31500002CF095420AD9C7F5006607EB561624F80C600C
S31500002D00DDE9026702970396AFE7A7EB571724F8AA
S31500002D100C70049F521B751B029E0297039F04971B
S31500002D20F1E7AD1BACEB5C1CB5F1807FA7F800C0EA
S31500002D30A2EB06023CBF13F8016B2D02B7F802C0E6
S31500002D4038BF46EA0222EE0A0CFB06F696420BD97B
S31500002D50CCF500650CEB551507EB08187D804FF098
S31500002D60080E08F5827743E6ACEB5C1C921BA7F8CD
S31500002D7002C04FF0100E4FF4807907F50177AE1BB5
S31500002D8038E6A5EB5515A6EB0806A2EB0802ADB290
S31500002D900CF1010C4DE6A7EB5717A6EB0C06A2EBC0
S31500002DA00C02BFB2013579E6ACEB5C1CA6EB09065A
S31500002DB0A2EB09021FFA8CFC08F1010845EA0A0594
S31500002DC0ABE6053FB6F1807F3EBF13F8015B3602E6
S31500002DD045EA02227608921BD51705F1010E013F3E
S31500002DE005EA06050EEB4C0C2A44EBD1B6F1807FC2
S31500002DF03CBF13F8017B36024FEA0C15B4F846C601
S31500002E0038BF47EA0222F70A0CFB07F7974204F29B
S31500002E10446E40F2AC80CCF500660CEB56161FFAF9
S31500002E2086FC0226B7F1807FA4F846C63EF816A0B7
S31500002E304FEA460C0EEB46093EBF13F8016B3F0204
S31500002E4046EA0222FE0A0AFB06F6964240F29980FC
S31500002E50CAF500680AEB58181FFA88F8A9F8008026
S31500002E60B6F1807F3CBF13F8017B36023EF81CA00A
S31500002E7038BF47EA0222F70A0AFB07F797424FEAEA
S31500002E804C080EEB4C0940F28780CAF5006C0AEB41
S31500002E905C1C1FFA8CFCB7F1807FA9F800C038BF14
S31500002EA013F8016B3EF818903CBF3F0246EA022237
S31500002EB0FE0A09FB06F696424FEA480C87BFC9F59B
S31500002EC0006809EB5818A9EB591845F008058FBF9B
S31500002ED01FFA88F8921B1FFA88F8BE1B6F1C2EF883
S31500002EE00C807FF422AE009CABF10C0B04F58974C8
S31500002EF00B94DDE902A40294049C03940A9C0494B6
S31500002F00B6F1807F3CBF13F8014B3602C0E90636A6
S31500002F100B9B38BF44EA02228364019B0262C362B0
S31500002F20029B4162C363039BC0F838A00364049B01
S31500002F30C0F834B04364036B23B9C368019A934263
S31500002F4098BF03630899FFF7C7FB436A089A934241
S31500002F50836C07D282690D998A4203D2B3F5897FC1
S31500002F60FFF4E9ABB3F5897F3CD8002025E6ACEB4E
S31500002F705C1CD21B1FFA8CFCF71B45F001050326CF
S31500002F8050E7AAEB5A18921B1FFA88F80CF1010CAD
S31500002F9045F00205BE1B61E7AAEB5A1CD21B1FFABD
S31500002FA08CFC08F1010845F00405F71B73E7079F41
S31500002FB0C2E5DDE902A50295049D03950A9D0495E7
S31500002FC0C4E5B9460CEB070E059F17F80580069F6A
S31500002FD009F8018B0135AF4208BF0025CE45F3D174
S31500002FE0614453E44FF489738364BEE74162E3E5C9
S31500002FF02DE9F047D0E9075301278468D0F82C80E3
S31500003000A740D0F834C0013F066907EA080707EB76
S315000030100C1EB5F1807F36F81E900A4407D2914205
S3150000302080F0DC8111F8014B2D0244EA0323EC0AFF
S3150000303009FB04F4A34278D2056B06F66C6658EADF
S31500003040050519D0D0E900E70125BD40013D05EA97
S31500003050080505FA0EF7456AD0F8148005B9856AA1
S31500003060013D18F80550CEF1080E45FA0EF53D441F
S315000030704FF4C06707FB0566BCF1060F20D8012098
S315000030804000B4F1807F375A07D2914280F0A68182
S3150000309011F8015B240245EA0323E50A7D43AB42AE
S315000030A029BF01302C46641B5B1BFF28E8D9012091
S315000030B0B4F1807F80F02281914228BF00201DE17B
S315000030C0876BD0F824C04569BC45ACEB070E2CBF16
S315000030D00027876A05EB0E0010F807C001204FF4A1
S315000030E080774FEA4C0C07EA0C0E3D187544B4F194
S315000030F0807F36F8158007D2914280F06F8111F8F3
S31500003100015B240245EA0323E50A08FB05F54000B6
S31500003110AB422BBF01302C46774627EA0E0724BF69
S31500003120641B5B1BFF28DCD9C1E7281B0CF1C00C14
S31500003130B0F1807FA3EB04034FEA4C0436F81CC0C1
S3150000314007D2914280F04A8111F8015B000245EAFC
S315000031500323C50A0CFB05F5AB4280F0A0800220D4
S315000031604FF0000E06F2646CB5F1807FBCF800806B
S3150000317007D2914280F0328111F8014B2D0244EAC8
S315000031800323EC0A08FB04F4A34280F0EB800CEB6B
S31500003190071C00270CF1040C4FF008094FF001083A
S315000031A04FEA4808B4F1807F3CF808A007D2914264
S315000031B080F0148111F8015B240245EA0323E50A35
S315000031C00AFB05F5AB4229BF08F101082C46641B32
S315000031D05B1BC845E4D3BEF1030F3FF669AFA7EB0F
S315000031E009074744032F88BF4FF49C674FF001053A
S315000031F09CBFFF0107F558776D0006EB050CB4F18F
S31500003200807F3CF807E007D2914280F0E78011F812
S3150000321001CB24024CEA03234FEAD42C0EFB0CFC10
S31500003220634529BF01356446A4EB0C04A3EB0C03EC
S315000032303F2DE1D9403D032D7FF63AAF0D2D4FEAE4
S31500003240550700F2B18005F0010C013F4CF0020C6D
S31500003250C5F100450CFA07FC05F2AF25654406EBFF
S3150000326045064FF0010C4FEA4C0CB4F1807F36F85E
S315000032700CE007D2914280F0B18011F8015B240284
S3150000328045EA0323E50A0EFB05F5AB4231BF2C46A2
S31500003290641B5B1B0CF1010C013FE4D108E7401BEA
S315000032A03444B0F1807FB4F818C0A3EB050307D20D
S315000032B0914280F0938011F8015B000245EA0323F6
S315000032C0C50A0CFB05F5AB4222D20EF1F00EB5F1A4
S315000032D0807F36F81E4006D291427FD211F8010B4C
S315000032E02D0240EA0323E80A6043834208D2B0F184
S315000032F0807F71D2914234BF03200020BDE8F08761
S315000033002D1A1B1A03204FF00C0E06F6682C2BE71D
S31500003310401BB0F1807FB4F830C0A3EB050306D2A2
S3150000332091425BD211F8015B000245EA0323C50A0C
S315000033300CFB05F5AB42E5D3401BB0F1807FB4F83A
S315000033404840A3EB050306D2914247D211F8015B30
S31500003350000245EA0323C50A6543AB4224BF5B1B53
S31500003360451BCFE72D1BB5F1807FBCF80280A3EB90
S31500003370040306D2914231D211F8014B2D0244EAE0
S315000033800323EC0A08FB04F4A34205D20CEB07174F
S3150000339007F5827C0827FFE61B1B10274FF4807970
S315000033A00CF5017C2C1BF9E6053FB4F1807F06D2B3
S315000033B0914213D211F8015B240245EA0323640803
S315000033C01D1BED0F013D2540013FA3EB0503ECD18D
S315000033D0042706F2446644E703208FE700208DE7C2
S315000033E000230122C0E90B33C0E912324362836530
S315000033F0026570472DE9F74F9846002704469DF869
S315000034003030D8F80060C8F8007000938B46154637
S31500003410FFF762F90D9B1F70A36CB3F5897F09D185
S31500003420236A13B901230D9A1370206A003818BF56
S3150000343001201EE0E36C8BB1A36D5EB3042B1BD998
S3150000344094F85C30002B40F0D780D4F85D20E3641C
S3150000345012BA22624FF0FF32A365E261636A5B45EE
S3150000346055D3A36CD3B9236AF3B9042300200D9A6C
S31500003470137003B0BDE8F08F5A1CA26515F8012B36
S31500003480234483F85C20D8F80030013E0133C8F8A5
S315000034900030D1E7042BD3D80323E7E7009B002BAA
S315000034A040F0A7800223E1E7009B002BFAD001231E
S315000034B0226D9AB1D4E9002111444FF440728A403A
S315000034C00021206902F236728A4222D80122C4E91A
S315000034D01022C4E90E22002262632265A76D002F26
S315000034E068D1132E1BD943B3324629462046FFF72F
S315000034F07FFDF0B93246294604F15C0000F0D6FEA5
S31500003500A665D8F800303344C8F80030C4E7002375
S31500003510CEE74FF4806720F811700131D4E73246C8
S31500003520294620460193FFF763FD019B0028E1D061
S315000035300BB102285DD12A4602E0A6F114022A4404
S3150000354059462046A561FFF7F1F8002854D1A36932
S31500003550D8F800205D1B2A44C8F80020761B1D46BB
S315000035605AE715F809100137D15509F10109132F4A
S3150000357025D9A76504F15C0A93BB524659462046F5
S31500003580C4F818A0FFF7D2F8B0BBA369A3EB0A03EF
S315000035909F4236D3FA1A914533D3D8F8001009EB77
S315000035A00302D31B19443744C8F800102B44BE1A33
S315000035B0A065D4E74FF0000904F15B02D7E7B145F7
S315000035C0CFD104F15C0A3A4651462046A7650193DD
S315000035D0FFF70EFD019B88B9D8F800304B4493E7FE
S315000035E03A4651462046FFF703FD0028F4D002284C
S315000035F0C3D002230D9A137001203AE7002BBCD0EA
S31500003600F5E70B2035E72DE9F04F89B0DDF8488066
S315000036109A469DF84C3004460493D8F800308B4601
S3150000362002930023164617681360C8F80030029B01
S31500003630149A0793D4E909318B4204BF00236362CD
S31500003640656A20464B1BBB4232BF0023049B791997
S31500003650CDE90032524607ABFFF7CCFE079A029B34
S3150000366061699B1A0293D8F8003003901344C8F896
S315000036700030636A5846A3EB0509294492444A463A
S31500003680059300F013FE059BCB44ED1A33682F44D7
S315000036904B443360039B23B9B9F1000F01D0002FCF
S315000036A0C5D1039809B0BDE8F08F10B504464B6844
S315000036B00846216998470023236110BD70B54FF471
S315000036C040751646D1E9003213449D40036904460D
S315000036D005F2367513B1436DAB420ED03146204626
S315000036E0FFF7E3FF30463368690098472061B0FA78
S315000036F080F040096565400070BD0020FCE738B5E4
S3150000370004460D46FFF7D1FF6B6828466169984766
S315000037100023636138BD042A01D804207047D1F81C
S315000037200130B3F5805F38BF4FF48053C3600A7829
S31500003730E02AF2D80923B2FBF3F303EBC301521AD2
S31500003740D2B202600522B3FBF2F2826002EB820281
S315000037509B1ADBB243600020704770B5D1E9015275
S31500003760AA4205D290F840302B449B1A402B10D920
S31500003770002012E00A6890F84040D65C90F841209C
S315000037800133224402F03F02013486548B6080F8F4
S3150000379040408B689D42EDD8012070BD2DE9F04177
S315000037A090F840C017469E46D1E90123069ED21ADC
S315000037B06244B24204460D469DF81C800AD2FFF7C9
S315000037C0CCFF00284FD1142341F2020084F8463082
S315000037D0BDE8F08176453DD8002394F840200AB133
S315000037E09E421DD1D5E901128A4201D29E4229D8B4
S315000037F09E4235D131463846D4F88820FDF724FE5E
S31500003800C4F88800B8F1000F04D032463946E06C9F
S3150000381000F07BF8636D41F2030033446365D7E73C
S3150000382094F84120A25CFA5494F841200133013205
S3150000383002F03F0284F8412094F84020013A84F8CF
S315000038404020CAE729688A5CFA54AA680133013223
S31500003850AA60C7E741F20100142384F84630B7E7AF
S3150000386041F20200F8E70020B2E72DE9F047994659
S315000038705B6804460F469046002B40D011F00303C8
S3150000388040D19B6A006E1B6981181D1DA9421BD37E
S315000038901C33984218D2A842024638BF2A4699429B
S315000038A094BFC2EB010AC2EB030A101A3E18C5F117
S315000038B06800104431465246204400F0F7FC524658
S315000038C0FF21304600F029FD48F20403226E9A4299
S315000038D00CD848F2070102EB0800884206D99B1A69
S315000038E0FA58C4F880204FF0FF32FA50D9E9003573
S315000038F042463946206EA847236E4344236600207D
S31500003900BDE8F08741F20200FAE700F00CB8014684
S3150000391000F016B86822002100F0FFBC0346002024
S31500003920C3E90000704707B500F128030190009332
S3150000393000F108030020FDF735FE03B05DF804FB37
S3150000394002460B4600F128010830FDF789BEF0B5A6
S315000039501D4693B0002837D1189B06909B01CDE9F0
S3150000396004230AAB0A461E4601F120071C461068CE
S315000039705168083203C4BA422346F7D1002307969A
S315000039800993FEF77BFD0446D8B92023089304ABC0
S3150000399093E807008DE8070007AB04200ECB00F084
S315000039A01AFC0746FEF776FD8FB92B46324612AE55
S315000039B0154603CDB542186059602A4603F108033F
S315000039C0F6D1204613B0F0BD6FF07104F9E76FF041
S315000039D06F04F6E710B500244A1EA1424FEA8202A0
S315000039E04FF0FF0108BF224640F8044B00F095FC5B
S315000039F0204610BD036840F204500133012B98BFE6
S31500003A000020704740F20250704770477047FDF73C
S31500003A1073BE01221A70704730B504460D46A3B036
S31500003A20D0F80C1202AA8023D0F80402FDF7DEFEBD
S31500003A3080232146009502AA04F12C00FDF778F9AF
S31500003A40D4F80C32C4F810028033C4F80C3223B018
S31500003A5030BD1FB50023CDE90033CDE90213D0F800
S31500003A601032044693B9D0E982329A420ED26946A0
S31500003A70FFF7D2FFD4F8100270B141F2070240F20C
S31500003A800123904208BF184604B010BDA37833B195
S31500003A90E07800F20220F7E740F20120F4E740F276
S31500003AA00220F1E737B50C46054611462046FEF7DB
S31500003AB09AFD48B969462846FDF780FE20B9019B64
S31500003AC0C4F80452C4F8083203B030BD38B500F566
S31500003AD0CE7204460D46202300F5AA712C30FDF760
S31500003AE0EDF8D4F810321BB9D4E982329A4203D3E6
S31500003AF0A07800B1E07838BD29462046FFF78CFF54
S31500003B00EFE708B5FCF7BCFE0620FCF767FEBDE84C
S31500003B100840FCF7BFBE10B504465A20FCF75EFE0F
S31500003B202046FCF767FEBDE81040FF20FCF756BEB6
S31500003B3010B5FCF7A5FE0520FCF750FEFCF77AFE53
S31500003B400446FCF7A7FE04F0010010BD08B5FFF718
S31500003B50EFFF0028FBD108BD70B5FFF7F7FFFCF7B4
S31500003B608FFE0C20FFF7D7FFFCF764FE0546FCF737
S31500003B7061FE0646FCF75EFE040444EA06242C4376
S31500003B80FCF788FE204670BD10B5FFF7E5FF04463A
S31500003B90FCF776FE04F11C00FFF7BDFFFCF74AFEBA
S31500003BA00446FCF777FE0120A04010BD10B5FFF7D4
S31500003BB0D3FF0446FCF764FE2046FFF7ACFFFCF794
S31500003BC039FE0446FCF766FE04F0010010BDF8B5A8
S31500003BD0FFF7C2FF0446FCF753FE04F11C00FFF793
S31500003BE09AFFFCF727FE0746FCF724FEFCF722FEA9
S31500003BF00446FCF71FFEFCF71DFE0546FCF71AFE01
S31500003C00FCF718FE0646FCF745FE012316B103FA3B
S31500003C1006F0F8BD15B103FA05F0FAE714B103FA98
S31500003C2004F0F6E703FA07F0F3E710B5FFF794FFA1
S31500003C300446FCF725FE04F12800FFF76CFFFCF7AD
S31500003C40F9FD0124C0F307108440FCF723FE41F67A
S31500003C50F073A4F110029A4294BF20464FF480708C
S31500003C6010BD70B5FFF772FFFFF776FF0446FCF74D
S31500003C7007FE201DFFF74FFFFCF7DCFD0546FCF7AE
S31500003C80D9FD0646FCF7D6FD0404FCF7D3FD44EA4D
S31500003C9006242C4344EA0064FCF7FCFD002CBFBF5D
S31500003CA00123A4B2A3400133AABF601CD808C008F0
S31500003CB070BD38B50C460546FFF7D3FFA04207D3C3
S31500003CC0A84205D32C4484428CBF0020012038BD75
S31500003CD00020FCE738B505460C46FFF737FFFFF72F
S31500003CE010FFFCF7CDFD2846FCF778FD2046FCF7D3
S31500003CF081FDBDE83840FCF7CDBD70B50D461146D7
S31500003D0006461446FFF7D5FFA8B1FFF71FFFFCF7DD
S31500003D10B7FD0320FCF762FD3046FCF76BFD2C4433
S31500003D20A54203D1FCF7B6FD002070BDFCF782FD6D
S31500003D3005F8010BF4E740F20240F6E72DE9F843F7
S31500003D40064688461446FFF770FF2146074630466A
S31500003D50FFF7AFFF002844D0FFF7F8FEFCF790FD11
S31500003D600320FCF73BFD3046FCF744FD25468DB9A4
S31500003D70FCF790FD7B1E334229D07D4235403D4401
S31500003D803319AB4232BF2546AD1BADB25CB92046F6
S31500003D90BDE8F883FCF74EFDFF2805F1FF35E6D0B8
S31500003DA040F20340F4E7FFF7D1FEFFF7AAFEFCF767
S31500003DB067FD0220FCF712FD3046FCF71BFD08EB01
S31500003DC00509C14508D1FCF765FD641B2E44A742D1
S31500003DD03D4628BF2546D9E718F8010BFCF7FEFC3F
S31500003DE0EFE740F20240D3E74FF0FF307047FEF7AF
S31500003DF068BC2DE9F8430D460446FFF7C5FE0646A6
S31500003E00FFF72FFF8046FFF7E2FE074600F1FF3976
S31500003E10FFF7CCFED0B1731E45EA04021A4233D135
S31500003E2029462046FFF745FF88B3BCB9A84515D1FA
S31500003E30FFF78CFEFFF765FEFCF722FDC720FCF7B7
S31500003E40CDFCFCF727FD0020BDE8F8834B46E3E7F1
S31500003E5021462020FFF73EFF3444AD1B15B114EA7E
S31500003E60090FF5D1BD4208D2002DECD02146202005
S31500003E70FFF730FF3444AD1BF6E72146D820FFF7A5
S31500003E8029FF3C44ED1BEDE740F20440DCE740F23D
S31500003E900240D9E708B5FFF759FEFCF7F1FCB92057
S31500003EA0FCF79CFCFCF7F6FCFFF7B0FD002008BD14
S31500003EB0FEE710B53AB1002350F8234041F82340FD
S31500003EC001339A42F8D110BDEFF3108072B67047F5
S31500003ED000B962B6704770B5054614460E46FFF740
S31500003EE0F3FF2B685C4034405C402C60BDE87040BA
S31500003EF0FFF7EEBFC369032B9FBF00EB83020133BD
S31500003F00D160C361704783691B06FCD5406AC0B2A5
S31500003F10704783695A06FCD5C16383699B06FCD545
S31500003F20406AC0B2704783695B06FCD5C1637047BF
S31500003F3013B51AB10024009400F0BEF802B010BD0B
S31500003F40F0B58DB005AC84E807001C46A1420D46CD
S31500003F5028BF2546129B0DB304B3114628460026FA
S31500003F6003F51813CDE90A468DE8030003F2411361
S31500003F705F02C5EB4323099302950CAA059B12E940
S31500003F800700069500F041F9A54207D23146621BAB
S31500003F90381B0DB0BDE8F04000F035B90DB0F0BDEE
S31500003FA030B591B001AC84E807001C461346DA0030
S31500003FB049BF029A6200033222F00302014604A8B6
S31500003FC0FFF7B6FF04A800F08CF81499224601F515
S31500003FD0181101F241114D0208A8C4EB412100233A
S31500003FE0FFF7A6FF05F5007100232246091B0CA862
S31500003FF0FFF79EFF0CA800F074F808A904A800F0CB
S3150000400050F811B030BD10B58CB005AC84E807008F
S315000040100E9ADDE9060102F5181202F5A0725202A7
S31500004020CDE9092300228DE803000B9202930CAA26
S31500004030059B12E9070000F0E8F80CB010BD2DE969
S31500004040F04B4FF0000899460746164645468AB09B
S3150000405003AC84E8070002F0805B07AC049A424593
S3150000406002D80AB0BDE8F08B139B13B9AA1E012A29
S315000040700AD9129BCDE90779099600955BB194E8B8
S3150000408007004B46FFF75CFFBBF1000F00D14F4422
S315000040900135C844E2E74B4694E80700FFF7B3FF53
S315000040A0F2E708B5FEF76EF8FEF7A2F8FEF7AAF8F3
S315000040B0BDE80840FEF7BAB810B5044622F07042D3
S315000040C0103060602160A26039B1A26803F07043CD
S315000040D01343A360029BE36010BDA36843F08043D3
S315000040E0F7E701234360C36843F02003C360836896
S315000040F043F0005383607047C36803F00F03012B3E
S3150000410002D0033B012B08D8C36801F01F0143EA24
S315000041100123C36083680B4483607047006970475E
S3150000412070B586B003AE054686E80E00FFF7F6FFCB
S31500004130202804463AD86A6800EB80039A4203D0E6
S31500004140062343439A4233D10B9BB3EB440F2FD143
S315000041500E9A93422CD1012221463120EB68FDF7BD
S31500004160E7FF08BB0123CDE90033234695E80700A6
S31500004170FFF765FF08230AAA009307CA2346FFF73D
S315000041800FFF0C23009396E807002346FFF7D8FE9F
S315000041900A230DAA009307CA2346FFF701FFFDF77E
S315000041A0E3FF002818BF032006B070BD0120FBE71F
S315000041B00720F9E7062808D804280AD80138032872
S315000041C08CBF0020012080017047C31F5842584110
S315000041D0F9E78020704770B58AB007AC84E80E0016
S315000041E003AD064694E8070085E80B000123029319
S315000041F00EAB019303230093304694E80E00FEF7BE
S315000042003DF80AB070BD00F088B882B02DE9F043E1
S315000042108BB005AE86E80700079D1F4615F0804562
S3150000422013938046DDE914328946169C16D18C42DA
S3150000423028BF0C46D20016D584B10F2C1AD8A9EB8C
S315000042400502042A3B6828BF042208EB050009A9D9
S315000042500435099300F02AF8AC42F0D80BB0BDE85B
S31500004260F04302B070479C4228BF1C46002CF5D094
S315000042700F2C13D9DDE914018DE803000294139B7A
S3150000428096E80700FDF786FFFDF7B2FFFDF7BAFFD8
S315000042900BB0BDE8F04302B0FDF7C8BF2246394671
S315000042A00BB0BDE8F04302B000F000B80A44431E6C
S315000042B0914200D1704710B511F8014B914203F8B5
S315000042C0014FF9D110BD0139024410B5904201D118
S315000042D0002005E0037811F8014FA34201D0181B16
S315000042E010BD0130F2E7884210B501EB020402D995
S315000042F08442234607D8431EA14208D011F8012B59
S3150000430003F8012FF8E7024401468A4200D110BDA6
S3150000431013F8014D02F8014DF7E7024403469342B4
S3150000432000D1704703F8011BF9E700000000000008
S315000043300000000000000000000000000000000077
S31500004340F8B500BFF8BC08BC9E467047F8B500BF7C
S31500004350F8BC08BC9E467047000000000000000044
S315000043600000000000000000000000000000000047
S315000043700000000000000000000000000000000037
S31500004380B814B6F1E0CFF3ADB7DD25C9FA79B713A6
S315000043900000000013B779FAC925DDB7ADF3CFE009
S315000043A0F1B614B801020000000000008C460000BF
S315000043B040000000030004020000000000000000AE
S315000043C000000000000000000000000000000000E7
S315000043D000000000000000000000000000000000D7
S315000043E00000000007B0CD5E0200000001000402DC
S315000043F09046000000600000000008007004010004
S31500004400C3250000C725000061020000E725000063
S31500004410172600003845000047260000BD2600008C
S3150000442000000000DD030000BD25000004000007B9
S3150000443000000D1013001A202630384050000000EE
S31500004440FD0707FD690A0000990A00002D0B000010
S31500004450CD260000EB17A6030201000003000000B2
S31500004460F40A0AF40505000001000000EB17A65E39
S315000044700A06000001000000F50909F5030700001F
S3150000448001000000F60808F606080000000000001B
S31500004490FE0101FE0808000000000000FD0303FD08
S315000044A00C08000000000000FD0707FD13080000CF
S315000044B000000000F30B0BF3110A000003000000DC
S315000044C0F70A0AF7120B000003000000FC0404FCC4
S315000044D00D0C00000300000080000000000000003A
S315000044E000000000000000000000000000000000C6
S315000044F000000000000000000000000000000000B6
S3150000450000000000000000000000000000000000A5
S3150000451000000000000000006A09E667BB67AE8580
S315000045203C6EF372A54FF53A510E527F9B05688C8F
S315000045301F83D9AB5BE0CD190001000025190000EF
S31500004540BD170000ED170000BD180000011900009E
S31500004550F5390000D5390000053A0000A53A0000FB
S31500004560533A000031180000313B0000FB3C0000CC
S315000045703D3D0000F33D0000E93D00000000000065
S31500004580010000000000000000B00300A04500008C
S31500004590C000000000000000000010002000000025
S315000045A0FFFFFFFF00000001000000000000000008
S315000045B000000000FFFFFFFFFFFFFFFFFFFFFFFF01
S315000045C0FFFFFFFF00000000FFFFFFFFFFFFFFFFF1
S315000045D0BCE6FAADA7179E84F3B9CAC2FC6325519F
S315000045E06B17D1F2E12C4247F8BCE6E563A440F232
S315000045F077037D812DEB33A0F4A13945D898C29677
S315000046004FE342E2FE1A7F9B8EE7EB4A7C0F9E1633
S315000046102BCE33576B315ECECBB6406837BF51F5E4
S31500004620FFFFFFFF00000001000000000000000087
S3150000463000000000FFFFFFFFFFFFFFFFFFFFFFFC83
S315000046405AC635D8AA3A93E7B3EBBD55769886BCD9
S31500004650651D06B0CC53B0F63BCE3C3E27D2604B30
S315000046601014202040402010141C20304020000050
S315000046707C46000010100020040000003D090000E8
S3110000468075090000F5010000CD010000E6
S3150000600000080020B17A0000C9940100CF94010075
S31500006010D3710000D5940100536300005363000060
S315000060205363000053630000536300005363000092
S3150000603053630000E48302005363000053630000CF
S31500006040536300005363000053630000F1790000BE
S315000060505363000053630000536300005363000062
S315000060605363000053630000536300005363000052
S3150000607005D800005363000053630000536300001B
S315000060805363000053630000536300005363000032
S3150000609053630000F1640000536300005363000083
S315000060A053630000917B0000697B0000536300008E
S315000060B053630000B554020053630000F55E02000E
S315000060C03F7D02003B7D0200E55602004B7D02004B
S315000060D0437D0200CD5E0200477D0200355F02006F
S315000060E0653902001D3C0200A55F020053630000F3
S315000060F053630000536300005363000053630000C2
S3150000610053630000536300005363000053630000B1
S3150000611053630000536300005363000053630000A1
S315000061205363000053630000536300005363000091
S31500006130536300005363000091D5000081D5000031
S31500006140013800D0FCE770470F207047026893695A
S3150000615013F0200FFBD07047014B01221A617047E4
S3150000616000F00350014B10221A61704700E0035003
S31500006170014B10221A61704700D00350BFF34F8FB6
S315000061800549CA6802F4E062044B1343CB60BFF3CF
S315000061904F8F00BFFDE700BF00ED00E00400FA05E9
S315000061A000239B6AB3F5C04F07D21A680A4B9A427E
S315000061B007D0002303708360704700230370836059
S315000061C070470123037000239A6A926842609B6AB3
S315000061D09B698360704700BF07B0CD5E00239B6A52
S315000061E0B3F5C04F18D230B585B005460C4601232D
S315000061F08DF8043000230293039301A8FFF7D0FF24
S31500006200039B13F4806F05D000239B6A1B6C214609
S315000062102846984705B030BD7047144B1B68B3F14C
S31500006220FF3F06D04FF4001202FA03F3104A13663A
S315000062307047104B1B78BBB90F4B4FF480725A66F0
S3150000624003F5A6235B681BB9094B4FF400121A66C7
S31500006250094B4FF400725A6603F5AE235B681BB90F
S31500006260034B4FF480021A66704700BF04080020F3
S315000062700090004408140020009000500C4B1B684E
S31500006280B3F1FF3F12D10B4B1B787BB90A4B5B680E
S3150000629013F0010F02D0064B00221A60074B5B6811
S315000062A013F0010F02D0024B01221A60704700BFA3
S315000062B0040800200814002000C005500000065005
S315000062C000239B6AB3F5C04F26D21B6BB3F5C04FB4
S315000062D025D200B585B001238DF804300023029342
S315000062E0039301A8FFF75CFF039B13F4803F19D0CB
S315000062F0029BC3F307421B0E17D0012B07D00023C6
S315000063009B6A1B6B1B6C984705B05DF804FB0A2A59
S31500006310F5D840F20110F7E740F20110704740F25D
S315000063200110704740F20110EEE740F20110EBE772
S3150000633000230360704703680B600160704700E04C
S315000063401846036823B18B42FAD10B680360704785
S315000063507047FEE710B4154B154A9A60D3F88820AB
S3150000636042F47002C3F88820124A4FF40041916645
S3150000637001F1884101F500524FF0FF3010664FF6EB
S31500006380DF7050660220C3F8D000BFF34F8FBFF313
S315000063906F8F09480824C0F880414FF44033D3601A
S315000063A004600B615DF8044B704700BF00ED00E030
S315000063B0006000000090005000E100E013462AB99A
S315000063C0704750F8043B41F8043B13465A1E002B15
S315000063D0F7D1704708B50448044A121A92100449C6
S315000063E0FFF7ECFF08BD00BF44F9030044F90300C2
S315000063F0E82C00200048704700B4C4040020704711
S3150000640000487047002D31014FF06041D1F8003E41
S31500006410012282401343C1F8003E002070474FF02E
S315000064206041D1F8003E0122824023EA0203C1F80E
S31500006430003E0020704708B50820FFF7E5FF08205A
S31500006440FFF7EDFF08BD4FF06043D3F8803E13F031
S31500006450010F01D1112070470E4AD2F8FC3043F0EB
S315000064608073C2F8FC304FF06043D3F8002E4FF033
S31500006470010C0CFA00FC42EA0C02C3F8002E53F899
S315000064802030002BE8D04FF0604303F820100020A6
S31500006490704700BF00ED00E0104B5B78ABB10728FA
S315000064A015D8B1B10D4B03EB00131B7C9BB10C4B04
S315000064B01B6D0122824013EA020003D001230B70F8
S315000064C00020704700230B70704706487047064847
S315000064D07047054870470548704700BF08140020FC
S315000064E000000450028000F0018000F0078000F0F8
S315000064F0F8B51C4B1F6D5B6D1F4002D401250024AF
S3150000650002E0FEE701346D00072C2AD83D42F9D09F
S31500006510154B1D65154B03EB04135B68002BF1D07F
S31500006520124E06EB0416F1680131F160B26820469E
S31500006530984780F00100C0B2737C012BE2D100289D
S31500006540E0D00A4B03EB441393F890206FF341021B
S3150000655083F8902093F8A0206FF3410283F8A020DF
S31500006560D0E7F8BD000004500020045008140020B5
S31500006570B0F1FF3F01D010B970470248704702489A
S31500006580704700BF21E000F024E000F089080023F6
S3150000659001E0043001338B4205D20268B2F1FF3FBD
S315000065A0F7D00020704701207047704700238365AD
S315000065B070478164012380F854307047037A0B706A
S315000065C0437A8B70837A0B71C37A8B71037B4B7022
S315000065D0437BCB70837B4B71C37BCB7100207047B1
S315000065E0B0F5207F20D00ED8B0F5007F16D020D889
S315000065F010B1B0F5C07F04D10F4B186FC0F3033054
S3150000660018E0002016E0B0F5607F05D10A4BD3F8FC
S315000066108000C0F301100DE000200BE0064BD3F81C
S315000066209000C0F3046005E0034B186FC0F38020B0
S3150000663000E000200130704700800050044B4FF40A
S3150000664000225A6603F5804301229A62704700BF12
S3150000665000900050014BA3F88401704708140020F5
S31500006660024B4FF480321A67704700BF009000500B
S3150000667038B505460C46174B4FF400329A66002093
S31500006680FFF7AEFF05FB00F0134BDA6902F4803228
S3150000669041F67131D9639B6823F440136CB90F49F5
S315000066A0884207D800210B430B498B600AB10022B0
S315000066B0CA6338BD4FF48011F5E7002C07DD0749A2
S315000066C0884201D80021EEE74FF48011EBE74FF442
S315000066D04011E8E70090005000000350005A6202A3
S315000066E008B5002903DD0121FFF7C2FF08BD00211F
S315000066F0FFF7BEFFFAE708B5FFF77CFE0021FFF7BC
S31500006700B7FF08BD002807DB00F1604000F56140D7
S3150000671090F800030009704700F00F00014B185C69
S315000067200009704714ED00E04209064B53F8223089
S3150000673000F01F0023FA00F080F0010000F00100D5
S31500006740704700BF00E100E008B51920FFF7ECFF35
S3150000675028B1084B4FF00072C3F880211A601A2046
S31500006760FFF7E2FF28B1034B4FF08062C3F88021A8
S315000067701A6008BD00E100E038B5EFF3108313F0AE
S31500006780010F1BD10446FFF7CFFF0546B8B92046D7
S31500006790FFF7B8FF0446EFF3118313B1B0EB131FF5
S315000067A00FD2094B5B68C3F3080343B1103B58B2E1
S315000067B0FFF7A8FFA04202D8012500E001252846E0
S315000067C038BD0125FBE700BF00ED00E010B504462B
S315000067D01520FFF7D1FF30B994F85430002BFBD0C9
S315000067E005E0FFF785FE94F85430002BF9D010BD74
S315000067F0044A536F23F44073417843EA01235367F5
S31500006800704700BF004000507047704770477047A0
S315000068107047036C13F0400FFBD0C1637047034B06
S31500006820984201D000207047382070470000035A74
S31500006830436813F0010F19D00A230363C36C13F0E6
S31500006840500FFBD1036C13F0030FFBD1836A8362F5
S31500006850C36C13F0010FFBD100E0436B036C13F024
S31500006860800FFAD100F5005001234360704710B540
S315000068700446FFF7DDFF0023E360A36041F2020256
S315000068802261E3616361A36123626362E362A364DD
S3150000689004F5005201495164A36210BD7F370C0113
S315000068A008B5F9B10A4600F580530121596002F096
S315000068B00F01C36CC3F30A03002BFAD10163C36C47
S315000068C013F07803FBD112F0010F00D0012312F070
S315000068D0040F01D043F00203026C02F003029A4255
S315000068E0FAD108BDFFF7A4FFFBE7704700E0436A53
S315000068F0436913F4807FFAD100F500502023C36367
S315000069007047043021B100F58050012303607047C1
S3150000691000F50050F9E7436913F0807FFBD100F5DD
S31500006920005001234360704700F580500123436007
S315000069307047022A09D9033AD2B2022A04D821F0B2
S31500006940FF03036001717047704721F07F4311F424
S31500006950000201D04FF07F4213430360090E01711C
S31500006960704770B505460C46466806F00106FFF707
S31500006970DBFF2378627843EA0223A278120402F44A
S3150000698080321343E27832B14FF400321343C5F834
S31500006990983016B170BD0022F8E72846FFF7BBFF16
S315000069A0F8E729B9034A012303FA00F0106070479B
S315000069B0014AF8E7401004504020045008B50A4B3D
S315000069C05B785BB107280BD8074B03EB00131B7CE6
S315000069D043B10021FFF7E5FF002008BD0348FCE7AF
S315000069E00348FAE70348F8E708140020028000F09D
S315000069F0018000F0078000F008B50A4B5B785BB1B8
S31500006A0007280BD8074B03EB00131B7C43B101216E
S31500006A10FFF7C7FF002008BD0348FCE70348FAE775
S31500006A200348F8E708140020028000F0018000F017
S31500006A30078000F0064B4FF400329A6603F51C33CC
S31500006A4041F67132DA6303F500530122DA607047CA
S31500006A500090005008B5FFF7EDFF002008BD084B79
S31500006A6041F67132DA6303F500520121D16000224A
S31500006A70DA63A3F518334FF400329A66704700BF05
S31500006A800000035008B5FFF7EAFF08BD41B906301C
S31500006A90084B53F8200020F0F8004004400C7047E3
S31500006AA01230044B53F8200020F0F8004004400C4C
S31500006AB0704700BF0080035001281DD0F0B1352873
S31500006AC01ED822281ED3223813280BD8DFE800F060
S31500006AD01C0C0E100A0A0A0A0A0A0A0A0A0A0A0AF2
S31500006AE00A0A0A12002070470220704704207047E5
S31500006AF00520704706207047032070470020704726
S31500006B0000207047002070470120704708467047F4
S31500006B1070B50446C2F3062602F0070241B942EAFE
S31500006B20062242F440220634094B43F8242070BD65
S31500006B3011463046FFF7EAFF05463046FFF7BCFF31
S31500006B4045EA00251234024B43F82450EFE700BF14
S31500006B50008003500B784A7843EA8203CA7843EAF6
S31500006B6042130A7943EA021300EB4002920002F153
S31500006B70B04213630B78012B00D070478A78024B22
S31500006B8043F82020F9E700BFE88003504FF0B043F8
S31500006B905B680BB9002837D04FF0B0435B6843B150
S31500006BA04FF0B0435B6823B14FF0B0439B6A002BB4
S31500006BB0F6D180B1154B01225A604FF0B0435B68A5
S31500006BC023B14FF0B0439B6A002BF6D14FF0B04390
S31500006BD00122DA6070474FF0B0435B6823B14FF093
S31500006BE0B0439B6A002BF6D14FF0B0430222DA6025
S31500006BF04FF0B0435B6823B14FF0B0439B6A002B64
S31500006C00F6D1034B01225A60704700BF00100058AE
S31500006C10002000584FF0B0435B6843B14FF0B043DB
S31500006C205B6823B14FF0B0439B6A002BF6D1154B3E
S31500006C3001225A604378E3B113468278DAB1022220
S31500006C401343C278CAB104221343027943EA0213FA
S31500006C50427943EAC2034FF0B042936002F5805294
S31500006C6001235360037853B101224FF0B043DA6039
S31500006C7070470023E1E70022E2E70022E4E7022270
S31500006C80F3E700BF00200058024B1868C0F3074026
S31500006C90704700BF0080E00F034B9B680A3303F088
S31500006CA01F030120984070470080E00F38B5044666
S31500006CB021F0B6F8FFF75CFC054608B1284638BD5A
S31500006CC0FFF7EAFF01462046FFF760FC0028F5D1F2
S31500006CD0004DF3E70EE000F00A4B984207D00A4B4E
S31500006CE0984209D0C36D43F08003C3657047A3F58E
S31500006CF01033C3F88C11F5E7A3F52033C3F89C11C4
S31500006D00F0E700BF00C005500000065000F58053B4
S31500006D1001225A6040F6AA63436100238360C3657B
S31500006D2041F20502C2600361C361C36400F500520B
S31500006D300C49916483650C4B984206D00B4B9842E4
S31500006D400CD00A4B984204D101E0002303650023CE
S31500006D50436500F500500123436070470023036537
S31500006D60EFE700BFFFFF010000C00550000006501E
S31500006D70836913F0800FFBD0406AC0B2704710B52C
S31500006D80046802E02046FFF7F3FFA36913F0800FC3
S31500006D90F8D110BD836913F0400FFBD0C16383693E
S31500006DA013F0200FFBD0406AC0B27047836913F01E
S31500006DB0400FFBD0C1637047F8B50E46154607680D
S31500006DC0002407E0315D91FAA1F1090E3846FFF77C
S31500006DD0EDFF0134AC42F5D30020F8BD4369002B2A
S31500006DE00DDB41B9436A13F0010FFBD100F50050EA
S31500006DF001234360704700F58050012343607047CC
S31500006E000023036270476FF0040308E003F1604259
S31500006E1002F56142502182F8001301335BB23F2B29
S31500006E2008DC002BF2DA03F00F01034A0A44502172
S31500006E301176F2E700207047FCEC00E008B5006C24
S31500006E40FFF7E7FC002008BD29B1036C03F580536A
S31500006E5001229A647047036C03F5005301229A6479
S31500006E60036C03F500535A647047012900D9704733
